:020000040800F2
:1000000000100020E11E0008311F0008311F000809
:1000100000000000000000000000000000000000E0
:10002000000000000000000000000000311F000878
:100030000000000000000000311F0008651D0008DE
:10004000311F0008311F0008311F0008311F000850
:10005000311F0008311F0008311F0008311F000840
:10006000311F0008311F0008311F0008311F000830
:10007000311F0008311F0008311F0008311F000820
:10008000311F0008311F000800000000311F000868
:10009000311F0008311F0008311F0008311F000800
:1000A000311F0008311F0008311F0008311F0008F0
:1000B000311F000800000000311F00080000000090
:0400C0005FF808F1EC
:1000C40008B59023DB05984217D0224B98421FD0E5
:1000D400214B984227D0214B98422FD0204B984255
:1000E40000D008BD8020C003012100F011FB802056
:1000F400C003002100F00CFBF3E780208002012103
:1001040000F006FB80208002002100F001FBE8E7FC
:100114008020C002012100F0FBFA8020C0020021EF
:1001240000F0F6FADDE780200003012100F0F0FA88
:1001340080200003002100F0EBFAD2E78020400386
:10014400012100F0E5FA80204003002100F0E0FAEC
:10015400C7E7C0460004004800080048000C0048F7
:1001640000140048F0B55F46564644464D46F0B488
:1001740083B001910F6803210022002301268846E1
:1001840003E001330232102B2CD0341C9C403D1C64
:100194002540A542F5D1019C012124794942A34679
:1001A4008C46DC446446E4B2012C22D94546954091
:1001B400ED43AC46056864462540056005685C4629
:1001C40094402C430460C468454695400199AC436F
:1001D400C460CC79C56894402C430133C4600232B6
:1001E400102BD2D103B03CBC90469946A246AB46F4
:1001F400F0BD444681689440E44321408160019904
:10020400A4464979846891402143816041688CB255
:100214000199AC4384808979456899400D43ADB216
:100224008580C7E7044B02220360002303714271F7
:100234008371C3717047C046FFFF0000802382B002
:100244005B020193019B0B430193019BC361C16159
:10025400019BC361C3690193C369019302B07047F1
:1002640000690840431E9841C0B27047006980B2DB
:100274007047C04640690840431E9841C0B2704769
:10028400406980B27047C0468161704701857047FC
:10029400002A01D1018570478161FCE781827047A2
:1002A40007230B40C9088900401810B5016A9B0058
:1002B4000F249C40A1430162016A9A40131C0B4322
:1002C400036210BD114B012219681143196058686B
:1002D4000F490140596018680E49014019601868B7
:1002E4000D490140196058680C4901405960D96AA8
:1002F4000F208143D962186B094901401963596B76
:100304009143002259639A607047C046001002402E
:100314000CB8FFF8FFFFF6FEFFFFFBFFFFFFC0FF77
:10032400ACFEFFFF024B00221A7018707047C046E3
:1003340002100240034BF8211A68C0008A4310439C
:100344001860704700100240064B002804D11A6858
:1003540001218A431A607047196801220A431A600E
:10036400F9E7C04600100240034BF8215A6BC00065
:100374008A4310435863704700100240064B00281C
:1003840004D15A6B01218A435A637047596B012285
:100394000A435A63F9E7C04600100240064B00289E
:1003A40004D1596B04220A435A6370475A6B0421DF
:1003B4008A435A63F9E7C04600100240064B012104
:1003C4001A6A8A431A621A6A04218A431A621A6AE6
:1003D400104318627047C04600100240044B1821B5
:1003E4001A6A8A431A621A6A104318627047C0462E
:1003F40000100240064B002804D15A6A01218A43A6
:100404005A627047596A01220A435A62F9E7C046A0
:1004140000100240054B10B5054A5C6822405A6042
:100424005A6811430843586010BDC046001002408A
:10043400FFFFC2FF064B1968002803D1054A0A4092
:100444001A607047802252040A431A60F9E7C046D2
:1004540000100240FFFFFFFE034B0F21DA6A8A43BC
:100464001043D8627047C04600100240064B19681A
:10047400002803D1054A0A401A60704780221203FB
:100484000A431A60F9E7C04600100240FFFFF7FF75
:10049400014B18707047C04607100240034B0321FC
:1004A4005A688A43104358607047C046001002409F
:1004B400024B0C205B6818407047C0460010024095
:1004C400034BF0215A688A43104358607047C04672
:1004D40000100240034B044A59680A401043586014
:1004E4007047C04600100240FFF8FFFF094B0A4A5C
:1004F40059680A405A6059680204120C0A435A6047
:10050400196B064A000C0A401A631A6B10431863ED
:100514007047C04600100240FFBFFFFFFFFEFFFF11
:10052400044B40211A6B8A431A631A6B10431863F5
:100534007047C04600100240044B10211A6B8A43D6
:100544001A631A6B104318637047C04600100240C8
:10055400044B03211A6B8A431A631A6B1043186302
:100564007047C046001002403B4A38B553680C211E
:10057400041C0B40042B01D0082B52D037482060B8
:10058400354B37495A68051C1206120F8A5CD54050
:1005940065602A1C5D686D056D0F495DCA40A260E7
:1005A400111C1A6BD50521D42E4BE3602A4B1B6B0F
:1005B4005D0624D42C4B2361274B1B6BDA0625D410
:1005C400264B254A6361156B03232B4224D0116B00
:1005D400194001293AD0116B1940022938D0126B05
:1005E4001340032B01D11D4BA36138BD5B685A0432
:1005F40014D44B08E360184B1B6B5D06DAD58023DB
:100604001B022361144B1B6BDA06D9D5124A6061B5
:10061400156B03232B42DAD1A161E6E78B08E36073
:10062400C4E755685368AD022D0F0235D90303D4CE
:100634000E4868432060A3E7D36A0F2119400131B3
:10064400064801F023FA6843206099E7A061CCE7EB
:1006540080231B02A361C8E70010024000127A0045
:1006640000000020809FD5001280000000093D009A
:10067400024B1A6A104318627047C04600100240C9
:10068400064B196A002803D1054A0A401A627047CA
:10069400802212020A431A62F9E7C046001002409F
:1006A400FF7FFFFF064B196A002803D1054A0A4061
:1006B4001A627047802252020A431A62F9E7C0465E
:1006C40000100240FFFFFEFF044B5A69002902D1CB
:1006D40082435A61704710435861FBE7001002409F
:1006E400044B9A69002902D182439A6170471043EE
:1006F4009861FBE700100240044BDA69002902D13B
:100704008243DA6170471043D861FBE7001002406E
:10071400044B9A6A002902D182439A6270471043BB
:100724009862FBE700100240044BDA68002902D10A
:100734008243DA6070471043D860FBE70010024040
:10074400044B1A69002902D182431A61704710438D
:100754001861FBE700100240044B1A78002902D10B
:1007640082431A70704710431870FBE70910024067
:10077400430908D10A4B1A681F231840C240101CB1
:10078400012318407047012B04D0022B05D0044BE1
:100794005A6BF1E7024B1A6AEEE7014B5A6AEBE730
:1007A4000010024010B5002382B0A0240193E4009D
:1007B40001E0002808D11120FFF7DAFF019B013383
:1007C4000193019BA342F4D11120FFF7D1FF431EF3
:1007D4009841C0B202B010BD034B8022596A520442
:1007E4000A435A627047C04600100240034B9B689C
:1007F4001840431E9841C0B27047C04600100240E2
:10080400014B18707047C0460A10024008B5364BB9
:10081400984221D08023DB05984228D0334B98425C
:100824002ED0334B984234D0324B98423AD0324B8C
:10083400984242D0314B98424AD0314B984200D032
:1008440008BD8020C0020121FFF76EFF8020C00296
:100854000021FFF769FFF3E7802000010121FFF782
:1008640063FF802000010021FFF75EFFE8E701201D
:100874000121FFF765FF01200021FFF761FFDFE79A
:1008840002200121FFF75CFF02200021FFF758FF3F
:10089400D6E710200121FFF753FF10200021FFF7B6
:1008A4004FFFCDE7802040000121FFF749FF802062
:1008B40040000021FFF744FFC2E7802040020121ED
:1008C400FFF732FF802040020021FFF72DFFB7E73A
:1008D400802080020121FFF727FF80208002002171
:1008E400FFF722FFACE7C046002C014000040040A3
:1008F400001000400020004000400140004401403E
:100904000048014003681B4A10B59BB2904224D0B2
:100914008022D205904220D0174A90421DD0174A17
:10092400904221D0164C0A892340134303804B681C
:10093400C3620B8803850F4B98420BD0114B98422E
:1009440008D0114B984205D0104B984202D0012395
:10095400838210BD8B7A0386F9E7702293434A8819
:100964001343064A9042DDD103804B68C3620B886F
:100974000385ECE7002C0140000400400010004017
:10098400FFFCFFFF004001400044014000480140DB
:1009940001235B424360002303800381438083720D
:1009A4007047C046018582827047C0460268024B88
:1009B40013401943018070478FFF00004162704764
:1009C400C1627047406A7047806A80B27047C0460F
:1009D400002904D10268054B134003807047036863
:1009E40002229BB213430380F8E7C046FDFF0000D8
:1009F400002904D10268054B134003807047036843
:100A040004229BB213430380F8E7C046FBFF0000B7
:100A1400002904D10268054B134003807047036822
:100A240080229BB213430380F8E7C0467FFF000097
:100A34000268044B1340038003689BB2194301808E
:100A44007047C046F7FF00000268044B1340038060
:100A540003689BB2194301807047C046FFFC000045
:100A6400002904D10268054B1340038070470368D2
:100A740001229BB213430380F8E7C046FEFF000047
:100A84000B884A881A438B881A43CB881A430B89EC
:100A94001A434B891A438B891A434423C252704721
:100AA4000023038043808380C38003814381838147
:100AB4007047C046426C002904D15204520C4423AE
:100AC400C2527047024B1A4392B24423C252F8E70F
:100AD4000080FFFF026A194B70B513400384056A56
:100AE400174B426884694E881C400B8892B21C43A1
:100AF400144B1D408B8933432B43134DA8420ED016
:100B0400124DA8420BD0124DA84208D0114DA84254
:100B140005D082808A6804834263038470BD0825FB
:100B2400AB43CD894E8A2B430425AB438D882B439D
:100B3400094D2A400D8A35432A43EAE7FEFF0000A7
:100B44008CFF0000FDFF0000002C0140004001402C
:100B54000044014000480140FFFCFFFF026A1B4BB8
:100B640030B513400384056A194B4268846992B214
:100B74001C400B881B021C43164BA4B22B408D89CE
:100B84002D012B434D889BB22D012B43124D9BB25B
:100B9400A84205D082808A6804838263038430BDBE
:100BA4008025AB43CD892D012B430C4D2B408D88E3
:100BB4002D012B430A4D9BB22A400D8AAD002A43D6
:100BC4004D8A92B2AD002A4392B2E3E7EFFF0000F0
:100BD400FF8C0000DFFF0000002C0140BFFF00007D
:100BE400FFF3FFFF026A1A4B30B513400384056A12
:100BF400184B4268C46992B21C400B881C43164BC4
:100C04002B408D892D022B434D889BB22D022B4303
:100C1400124D9BB2A84205D082808A688483C26345
:100C2400038430BD0E4D2B40CD892D022B430D4D39
:100C34002B408D882D022B430B4D9BB22A400D8AED
:100C44002D012A434D8A92B22D012A4392B2E3E741
:100C5400FFFE00008CFF0000FFFD0000002C01409F
:100C6400FFF7FFFFFFFB0000FFCFFFFF026A144BFB
:100C740030B513400384056A124A4368C4699BB2C1
:100C840014400A88120214430F4AA4B22A408D89E0
:100C94002D032A434D8892B22D032A430B4D92B261
:100CA400A84205D083808B6884830364028430BDAA
:100CB400074D2B400D8AAD012B439BB2F2E7C04692
:100CC400FFEF0000FF8C0000FFDF0000002C01405C
:100CD400FFBFFFFF00230380438083808360838101
:100CE400C38103824382704730B5036A01249BB2F7
:100CF4008C40A343051C03840823081C183598431F
:100D04000DD0043989B2490849190868094B1202FF
:100D140003400B600B6892B21A430A6030BD490865
:100D240069180B68702083430B600B681A430A60D0
:100D3400F4E7C046FF8FFFFF41637047816370474C
:100D4400C1637047016470478269024B13401943C1
:100D5400018370478FFF00008269044B1A400B0225
:100D6400111C194389B201837047C046FF8F0000EC
:100D7400C269024B13401943818370478FFF0000FF
:100D8400C269044B1A400B02111C194389B28183B6
:100D94007047C046FF8F0000002904D14268054B0C
:100DA400134083807047436801229BB213438380BE
:100DB400F8E7C046FEFF00008269024B1340194366
:100DC40001837047F7FF00008269044B1A400B024D
:100DD400111C194389B201837047C046FFF7000014
:100DE400C269024B1340194381837047F7FF000027
:100DF400C269044B1A400B02111C194389B2818346
:100E04007047C046FFF700008269024B1340194344
:100E140001837047FBFF00008269044B1A400B02F8
:100E2400111C194389B201837047C046FFFB0000BF
:100E3400C269024B1340194381837047FBFF0000D2
:100E4400C269044B1A400B02111C194389B28183F5
:100E54007047C046FFFB00008269024B13401943F0
:100E6400018370477FFF0000836909025B045B0C08
:100E7400194389B201837047C269024B1340194375
:100E8400818370477FFF0000C36909025B045B0C28
:100E9400194389B281837047026A024B1340194394
:100EA40001847047FDFF0000026A024B134019439E
:100EB40001847047F7FF0000026A044B1A400B01DB
:100EC400111C194389B201847047C046DFFF00003A
:100ED400026A044B1A400B01111C194389B20184A4
:100EE4007047C0467FFF0000026A044B1A400B02A1
:100EF400111C194389B201847047C046FFFD0000EC
:100F0400026A044B1A400B02111C194389B2018472
:100F14007047C046FFF70000026A044B1A400B03F7
:100F2400111C194389B201847047C046FFDF0000D9
:100F34008268044B1340038183689BB21943018187
:100F44007047C046F7FF0000036A10B501248C40C7
:100F54009BB2A3430384036A8A40111C194389B2D8
:100F6400018410BD036A10B504248C409BB2A343D2
:100F74000384036A8A40111C194389B2018410BD99
:100F8400002904D14268054B1340838070474368AD
:100F940004229BB213438380F8E7C046FBFF0000A2
:100FA4000B88F0B5002B2BD0042B4AD0082B00D192
:100FB4006DE0056A474A4B882A408E880C89028472
:100FC400C769454A36023A403243240392B2056A5D
:100FD4002243424C1B032C401C438023A4B25B01DC
:100FE40092B22343828303843D4ACB88C1691B02A6
:100FF4000A408283C26992B213439BB28383F0BDD9
:10100400046A384A8B8822404D880E890284876995
:10101400354A36013A40324392B2046A1A43334B9A
:1010240002831C4001232B4323439BB20384CA88BD
:101034002F4B81690B40038383699BB21343038362
:10104400DDE7056A2B4A4C882A408B880E89028486
:101054008769214A36033A4032431B0292B2056A39
:101064001A43254B24012B4023439BB2102492B2F4
:101074002343028303841A4ACB8881691B020A40F2
:101084000283826992B213439BB20383B7E7056A72
:101094001A4A8C882A404B880E890284C769124AEE
:1010A40036013A40324392B2056A2243144C1B0281
:1010B4002C401C438023A4B25B002343828303841B
:1010C400CA880B4BC1690B408383C3699BB213432A
:1010D400838394E7FFEF0000FF0C0000FF5F000034
:1010E400FFF30000FEFF00000CFF0000F5FF00000E
:1010F400F3FF0000EFFF00005FFF0000FFFE0000B1
:10110400FFF5000000230122038043808280C38016
:10111400038170474B88F0B55C425C4162005746DE
:1011240092468A884E464546E0B4551E6E1EB54129
:101134000226751B0E88002E4ED0076A4F4EBC4601
:10114400371C664637400C8907848669076AB046AF
:101154004B4EBC4647463740B846464627033743BE
:10116400BEB2484F120232431E013B1C67463B404D
:1011740033439BB21026334392B202830384424A20
:10118400CB88816957460A4002838269190292B268
:101194000A4392B20283016A3C4A0A400284866985
:1011A40022013B4C016A344014433A4AA4B20A4037
:1011B40001210A4325431743ADB20583078481699E
:1011C400354A0A400283826992B2134303831CBCEA
:1011D40090469946A246F0BD0E89076AB2462B4E48
:1011E400BC46371C6646374007848669076AB046A2
:1011F400274EBC4647463740B846574646463F0109
:101204003743BFB23A430126224F90466246B44662
:101214001740624613433B439BB24646068303840E
:101224001D4ACB88816956460A40028382692D0291
:1012340092B21A430283016A104A1B020A400284D2
:1012440087690F4A016A174032033E1C16430D4A50
:10125400B6B2114010221143354362010C1C1443F1
:10126400ADB2058304848169074A0A400283826916
:1012740092B213439BB20383A9E7C046EFFF000079
:10128400FF0C00005FFF0000FFF30000FEFF000002
:101294000CFF0000F5FF0000F3FF0000406B7047F7
:1012A400806B7047C06B7047006C70478269044B59
:1012B4001340038383699BB2194301837047C0467B
:1012C400F3FF00008269054B09021340038383691D
:1012D4009BB2194389B201837047C046FFF30000F3
:1012E400C269044B13408383C3699BB2194381834E
:1012F4007047C046F3FF0000C269054B0902134062
:101304008383C3699BB2194389B281837047C04602
:10131400FFF30000C3689BB2002A02D18B43838190
:10132400704719438181FBE7818270470069084057
:10133400431E9841C0B27047C94389B201827047C5
:101344000369C06882B200200B4203D011404A1ED8
:101354009141C8B27047C046C94389B201827047FF
:1013640011434823C1527047C3689BB2002A02D17B
:101374008B438381704719438181FBE7002904D1A2
:101384004268054B134083807047436808229BB230
:1013940013438380F8E7C046F7FF00008268024BDE
:1013A400134003817047C046F8FF00008268054B74
:1013B400134019430181836807229BB213430381BD
:1013C4007047C0468FFF000070B5056A60291ED0C3
:1013D4001B4C1B012C40048485691A4C066A254069
:1013E40001242543ADB22B43174D9BB235402C430A
:1013F400A4B22243038302848268144B134019432A
:101404000181836807229BB21343038170BD104C92
:101414002C40048486690F4C056A264080246400AD
:1014240026431C03331C23430B4C9BB2254010243E
:10143400254314012A1C224392B203830284DBE76E
:10144400FEFF00000CFF0000F5FF00008FFF00000E
:10145400EFFF0000FF0C00005FFF000010B51B024F
:1014640084681A43FF231C40224392B21143018132
:101474008268034B134077221343038110BDC04697
:1014840088FF000010B51B0284681A43FF231C4028
:10149400224392B2114301818268802392B2DB011C
:1014A4001343038110BDC0468268024B13401943A5
:1014B400018170478FFF00004268044B1340838012
:1014C40043689BB2194381807047C0468FFF000078
:1014D4008268044B1340038183689BB219430181E2
:1014E4007047C046F8FF00008268044B1340038134
:1014F40083689BB2194301817047C0467FFF000097
:1015040030B58568FF242C4021430A431B021A434B
:1015140092B2028130BDC046F0B58768094C856936
:101524003C402143084C066A2C400225FF352C43DD
:10153400064D1B0135402A431A4392B201810483AC
:101544000284F0BDF8FF0000FCFC000055FF000021
:10155400002904D14268054B1340838070474368D7
:1015640080229BB213438380F8E7C0467FFF0000CC
:101574005023C1527047C04608B50E4B98420ED056
:101584000D4B984200D008BD802080020121FFF756
:10159400D7F8802080020021FFF7D2F8F3E78020FB
:1015A400C0010121FFF7C0F88020C0010021FFF72E
:1015B400BBF8E8E70038014000440040036801221A
:1015C4009343F0B5036042681F4B0D1C89681340B8
:1015D4000B43436002681D4B69681A40EB6889B08D
:1015E4000B432969041C0B43134303608268184BA3
:1015F40013406A691343836001A8FEF7B5FF154BD6
:101604009C421FD0039E2368190400D576002F68DE
:10161400301C391C00F03AFA391C051C301C00F04F
:1016240079FA7F080023B9425B41ED1823681A0454
:1016340004D5094A2B075B0F15401D43ADB2A581A4
:1016440009B0F0BD079EDEE7FFCFFFFFF3E9FFFF20
:10165400FFFCFFFF00380140F0FF000096239B01D0
:1016640003600C22002343608360C3600261436112
:101674007047C0464268064B10B51A400C684B6868
:1016840023438C68C96823430B431343436010BD51
:10169400FFF0FFFF0023036043608360C360704773
:1016A400002904D103680122934303607047026850
:1016B400012313430360F9E70368002A02D18B4333
:1016C4000360704719430160FBE7C04602680029C4
:1016D40003D1044B13400360704780231B02134360
:1016E4000360F9E7FF7FFFFF8268002903D1044B01
:1016F40013408360704780231B0113438360F9E721
:10170400FFF7FFFF4268002903D1044B13404360F5
:10171400704780231B0313434360F9E7FFFFF7FF80
:101724004268002903D1044B13404360704780236F
:10173400DB0213434360F9E7FFFFFBFF4368002A22
:1017440002D18B434360704719434160FBE7C046B5
:101754004268002903D1044B13404360704780233F
:101764001B0213434360F9E7FF7FFFFF4268002930
:1017740003D1044B13404360704780231B0413437D
:101784004360F9E7FFFF7FFF43691B0E1B064361BC
:1017940043691943416170470269FF231B021340E7
:1017A400038203699BB2194301827047002904D163
:1017B40003680222934303607047026802231343C1
:1017C4000360F9E78268034B13408360836819431D
:1017D40081607047FFFFCFFF4268002903D1044BAB
:1017E40013404360704780235B0313434360F9E76E
:1017F400FFFFEFFF4268034B134043604368194304
:1018040041607047FFFF9FFFC905C90D01857047FF
:10181400406AC005C00D7047436809061B021B0AD5
:1018240043604368194341607047C0460268002919
:1018340003D1044B13400360704780239B0113437F
:101844000360F9E7FFDFFFFF0268034B1340036007
:101854000368194301607047FFF7FFFF43681022D4
:1018640093434360436819434160704743682022AF
:1018740093434360436819434160704742680029B9
:1018840003D1044B1340436070478023DB011343AF
:101894004360F9E7FFBFFFFF002904D183680822F2
:1018A4009343836070478268082313438360F9E796
:1018B4000269FF2313400382036909029BB219439F
:1018C40001827047002904D18368202293438360F6
:1018D40070478268202313438360F9E7002904D109
:1018E40083681022934383607047826810231343F4
:1018F4008360F9E78268044B49041340836083687A
:10190400194381607047C046FFFFF1FF4369090630
:101914001B021B0A43614369194341617047C04676
:10192400836804229343836083681943816070470A
:10193400002904D18368022293438360704782683C
:10194400022313438360F9E78268002903D1044B1F
:101954001340836070478023DB0113438360F9E7FE
:10196400FFBFFFFF8268034B134083608368194302
:1019740081607047FF7FFFFF0268044B49051340F5
:1019840003600368194301607047C046FFFF1FFCF2
:101994000268044B0904134003600368194301609F
:1019A4007047C046FFFFE0FF8368002A02D18B43E3
:1019B4008360704719438160FBE7C0468268034B2C
:1019C400134083608368194381607047FFDFFFFF22
:1019D40010B5FF248BB2214001248C401B0A211C2A
:1019E400022B0AD0032B0AD00368002A02D18B43AE
:1019F400036010BD19430160FBE70430F4E70830CD
:101A0400F2E7C0468369002A03D19BB28B43038368
:101A14007047194389B20183FAE7C0468268034BD1
:101A2400134083608368194381607047FFEFFFFFB1
:101A3400C0690840431E9841C0B2704701627047B4
:101A4400FF220A4010B501248BB294401B0A221CC9
:101A5400012B0FD0022B10D084682240C3690020D0
:101A6400002A06D0090C012088400340581E8341F7
:101A7400D8B210BD04682240F0E744682240EDE784
:101A8400090C01238B4003627047C046002934D0FF
:101A94000123002210B488422CD301242407A1423C
:101AA40004D2814202D209011B01F8E7E400A142F9
:101AB40004D2814202D249005B00F8E7884201D394
:101AC400401A1A434C08A04202D3001B5C0822436C
:101AD4008C08A04202D3001B9C082243CC08A042DD
:101AE40002D3001BDC082243002803D01B0901D0C9
:101AF4000909E3E7101C10BC7047002801D000203E
:101B0400C04307B4024802A14018029003BDC04676
:101B1400D90000000029F0D003B5FFF7B9FF0EBCCF
:101B24004243891A1847C046002941D010B4041C06
:101B34004C40A44601230022002900D54942002834
:101B440000D5404288422CD301242407A14204D268
:101B5400814202D209011B01F8E7E400A14204D248
:101B6400814202D249005B00F8E7884201D3401A5F
:101B74001A434C08A04202D3001B5C0822438C0881
:101B8400A04202D3001B9C082243CC08A04202D3EB
:101B9400001BDC082243002803D01B0901D00909DB
:101BA400E3E7101C6446002C00D5404210BC70478B
:101BB400002806D003DB0020C043400801E0802059
:101BC400000607B4024802A14018029003BDC046B3
:101BD400190000000029EBD003B5FFF7A7FF0EBCE6
:101BE4004243891A1847C0467047C04608B500F0FA
:101BF40017F800F07BF800F0BBF800F003F9064892
:101C040000F0ECF8FA208100044A00F037F9FA20D9
:101C1400800000F055F9FEE77C1F0008EE0200008A
:101C2400254B13B5196801221143196058682349DB
:101C34000F2401405960186821490140196018684F
:101C440020490140196058681F4908405860D86A03
:101C5400A043D8621C6B1D4820401863586B904306
:101C6400002258639A6000920192194A1120106070
:101C74005A685A605A685A605A68114059605968DB
:101C8400A02292030A435A601968802282400A43C0
:101C94001A601968084A8801FBD5516803208143FA
:101CA4005160516802200143516059680C220A4076
:101CB400082AFAD113BDC046001002400CB8FFF840
:101CC400FFFFF6FEFFFFFBFFFFFFC0FFACFEFFFFC1
:101CD400002002400023984205D0C20703D40133F8
:101CE4004010102BF9D1181C70470000F0B580206B
:101CF40085B080020121FEF7E7FC8020C0020121AB
:101D0400FEF7E2FC802000030121FEF7DDFC124C0B
:101D1400124B9C421ED0A779E2796B46256801924A
:101D24001F736A460323A688537300239373281CE6
:101D3400012302A90296D373FEF714FA022F07D1E6
:101D4400301CFFF7C7FF019A81B2281CFEF7A8FADE
:101D54000834DDE705B0F0BD8C1F0008F41F00084F
:101D6400024B1A6801321A607047C0461400002002
:101D740010B5164BFA2186B018688900FFF786FE65
:101D8400134B144A01385860106AC0210002000A3B
:101D940009060143116200229A60802007221A601A
:101DA40090400121FEF79CFC0B4C6846FFF756FC63
:101DB400E1235B02201C69460093FFF7FFFB201C14
:101DC4000121FFF76DFC06B010BDC04610000020D5
:101DD40010E000E000ED00E00038014010B5041C04
:101DE4002378002B0BD006488021FFF721FE002822
:101DF400F9D021780248FFF707FD0134F0E710BD60
:101E040000380140F0B5802089B0012100011A4D4D
:101E1400FEF766FC6846FEF7BBFD802303ACDB00DF
:101E24006946281C0193FEF76DFD201CFEF752FF46
:101E340070230126238000270223281C211CA38150
:101E440066802782FEF746FE281C211CFEF786FECC
:101E5400281C211CFEF7C6FE281C211CA781FEF7A6
:101E640005FF281C311CFEF7FBFD281C311CFEF766
:101E740021FE09B0F0BDC046002C014070B5061C1F
:101E84008802FA218900151CFFF74EFE0B4C011C39
:101E9400201CFEF751FFFA21B0028900FFF744FE2F
:101EA400011C201CFEF74AFFFA21A8028900FFF753
:101EB4003BFE011C201CFEF743FF70BD002C0140BB
:101EC400FA2108B589008002FFF72EFE011C0248A2
:101ED400FEF738FF08BDC046002C01400D4885467A
:101EE400002103E00C4B5B58435004310B480C4B6E
:101EF40042189A42F6D30B4A02E0002313600432DC
:101F0400094B9A42F9D3FFF78BFE00F011F8FFF763
:101F14006DFEFEE7001000200C20000800000020E9
:101F2400140000201400002018000020FEE7000028
:101F340070B50D4E0D4D0024AD1BAD1005D0A300A2
:101F4400F35801349847A542F9D100F051F8084EEE
:101F5400084D0024AD1BAD1005D0A300F358013487
:101F64009847A542F9D170BD0000000000000000B0
:101F7400000000000000000048656C6C6F20576F83
:101F8400726C64210A00000000000048000802028C
:101F940000000048000202020000004800010202A2
:101FA4000000004800040202000000484000020053
:101FB40000000048800002000000004820000200E9
:101FC4000000004810000200000000480400010066
:101FD40000000048080000000004004880000200DF
:101FE4000004004840000200000400480100000012
:101FF400F8B5C046F8BC08BC9E467047F8B5C04664
:08200400F8BC08BC9E467047C1
:10200C000000000001020304010203040607080992
:04201C00006CDC0276
:0400000508001EE1F0
:00000001FF
