:020000040800F2
:1000000000200020750F0008C50F0008C50F00086C
:1000100000000000000000000000000000000000E0
:10002000000000000000000000000000C50F0008F4
:100030000000000000000000C50F0008110F0008BC
:10004000C50F0008C50F0008C50F0008C50F000840
:10005000C50F0008C50F0008C50F0008C50F000830
:10006000C50F0008C50F0008C50F0008C50F000820
:10007000C50F0008C50F0008C50F0008C50F000810
:10008000C50F0008C50F000800000000C50F0008DC
:10009000C50F0008C50F0008C50F0008C50F0008F0
:1000A000C50F0008C50F0008C50F0008C50F0008E0
:1000B000C50F000800000000C50F00080000000088
:0400C0005FF808F1EC
:1000C40008B59023DB05984217D0224B98421FD0E5
:1000D400214B984227D0214B98422FD0204B984255
:1000E40000D008BD8020C003012100F011FB802056
:1000F400C003002100F00CFBF3E780208002012103
:1001040000F006FB80208002002100F001FBE8E7FC
:100114008020C002012100F0FBFA8020C0020021EF
:1001240000F0F6FADDE780200003012100F0F0FA88
:1001340080200003002100F0EBFAD2E78020400386
:10014400012100F0E5FA80204003002100F0E0FAEC
:10015400C7E7C0460004004800080048000C0048F7
:1001640000140048F0B55F46564644464D46F0B488
:1001740083B001910F6803210022002301268846E1
:1001840003E001330232102B2CD0341C9C403D1C64
:100194002540A542F5D1019C012124794942A34679
:1001A4008C46DC446446E4B2012C22D94546954091
:1001B400ED43AC46056864462540056005685C4629
:1001C40094402C430460C468454695400199AC436F
:1001D400C460CC79C56894402C430133C4600232B6
:1001E400102BD2D103B03CBC90469946A246AB46F4
:1001F400F0BD444681689440E44321408160019904
:10020400A4464979846891402143816041688CB255
:100214000199AC4384808979456899400D43ADB216
:100224008580C7E7044B02220360002303714271F7
:100234008371C3717047C046FFFF0000802382B002
:100244005B020193019B0B430193019BC361C16159
:10025400019BC361C3690193C369019302B07047F1
:1002640000690840431E9841C0B27047006980B2DB
:100274007047C04640690840431E9841C0B2704769
:10028400406980B27047C0468161704701857047FC
:10029400002A01D1018570478161FCE781827047A2
:1002A40007230B40C9088900401810B5016A9B0058
:1002B4000F249C40A1430162016A9A40131C0B4322
:1002C400036210BD114B012219681143196058686B
:1002D4000F490140596018680E49014019601868B7
:1002E4000D490140196058680C4901405960D96AA8
:1002F4000F208143D962186B094901401963596B76
:100304009143002259639A607047C046001002402E
:100314000CB8FFF8FFFFF6FEFFFFFBFFFFFFC0FF77
:10032400ACFEFFFF024B00221A7018707047C046E3
:1003340002100240034BF8211A68C0008A4310439C
:100344001860704700100240064B002804D11A6858
:1003540001218A431A607047196801220A431A600E
:10036400F9E7C04600100240034BF8215A6BC00065
:100374008A4310435863704700100240064B00281C
:1003840004D15A6B01218A435A637047596B012285
:100394000A435A63F9E7C04600100240064B00289E
:1003A40004D1596B04220A435A6370475A6B0421DF
:1003B4008A435A63F9E7C04600100240064B012104
:1003C4001A6A8A431A621A6A04218A431A621A6AE6
:1003D400104318627047C04600100240044B1821B5
:1003E4001A6A8A431A621A6A104318627047C0462E
:1003F40000100240064B002804D15A6A01218A43A6
:100404005A627047596A01220A435A62F9E7C046A0
:1004140000100240054B10B5054A5C6822405A6042
:100424005A6811430843586010BDC046001002408A
:10043400FFFFC2FF064B1968002803D1054A0A4092
:100444001A607047802252040A431A60F9E7C046D2
:1004540000100240FFFFFFFE034B0F21DA6A8A43BC
:100464001043D8627047C04600100240064B19681A
:10047400002803D1054A0A401A60704780221203FB
:100484000A431A60F9E7C04600100240FFFFF7FF75
:10049400014B18707047C04607100240034B0321FC
:1004A4005A688A43104358607047C046001002409F
:1004B400024B0C205B6818407047C0460010024095
:1004C400034BF0215A688A43104358607047C04672
:1004D40000100240034B044A59680A401043586014
:1004E4007047C04600100240FFF8FFFF094B0A4A5C
:1004F40059680A405A6059680204120C0A435A6047
:10050400196B064A000C0A401A631A6B10431863ED
:100514007047C04600100240FFBFFFFFFFFEFFFF11
:10052400044B40211A6B8A431A631A6B10431863F5
:100534007047C04600100240044B10211A6B8A43D6
:100544001A631A6B104318637047C04600100240C8
:10055400044B03211A6B8A431A631A6B1043186302
:100564007047C046001002403B4A38B553680C211E
:10057400041C0B40042B01D0082B52D037482060B8
:10058400354B37495A68051C1206120F8A5CD54050
:1005940065602A1C5D686D056D0F495DCA40A260E7
:1005A400111C1A6BD50521D42E4BE3602A4B1B6B0F
:1005B4005D0624D42C4B2361274B1B6BDA0625D410
:1005C400264B254A6361156B03232B4224D0116B00
:1005D400194001293AD0116B1940022938D0126B05
:1005E4001340032B01D11D4BA36138BD5B685A0432
:1005F40014D44B08E360184B1B6B5D06DAD58023DB
:100604001B022361144B1B6BDA06D9D5124A6061B5
:10061400156B03232B42DAD1A161E6E78B08E36073
:10062400C4E755685368AD022D0F0235D90303D4CE
:100634000E4868432060A3E7D36A0F2119400131B3
:10064400064800F06DFB6843206099E7A061CCE7A1
:1006540080231B02A361C8E70010024000127A0045
:1006640000000020809FD5001280000000093D009A
:10067400024B1A6A104318627047C04600100240C9
:10068400064B196A002803D1054A0A401A627047CA
:10069400802212020A431A62F9E7C046001002409F
:1006A400FF7FFFFF064B196A002803D1054A0A4061
:1006B4001A627047802252020A431A62F9E7C0465E
:1006C40000100240FFFFFEFF044B5A69002902D1CB
:1006D40082435A61704710435861FBE7001002409F
:1006E400044B9A69002902D182439A6170471043EE
:1006F4009861FBE700100240044BDA69002902D13B
:100704008243DA6170471043D861FBE7001002406E
:10071400044B9A6A002902D182439A6270471043BB
:100724009862FBE700100240044BDA68002902D10A
:100734008243DA6070471043D860FBE70010024040
:10074400044B1A69002902D182431A61704710438D
:100754001861FBE700100240044B1A78002902D10B
:1007640082431A70704710431870FBE70910024067
:10077400430908D10A4B1A681F231840C240101CB1
:10078400012318407047012B04D0022B05D0044BE1
:100794005A6BF1E7024B1A6AEEE7014B5A6AEBE730
:1007A4000010024010B5002382B0A0240193E4009D
:1007B40001E0002808D11120FFF7DAFF019B013383
:1007C4000193019BA342F4D11120FFF7D1FF431EF3
:1007D4009841C0B202B010BD034B8022596A520442
:1007E4000A435A627047C04600100240034B9B689C
:1007F4001840431E9841C0B27047C04600100240E2
:10080400014B18707047C0460A10024008B50E4BE1
:1008140098420ED00D4B984200D008BD8020800233
:100824000121FFF78DFF802080020021FFF788FF60
:10083400F3E78020C0010121FFF776FF8020C0018B
:100844000021FFF771FFE8E7003801400044004051
:10085400036801229343F0B5036042681F4B0D1CEB
:10086400896813400B43436002681D4B69681A4052
:10087400EB6889B00B432969041C0B4313430360E1
:100884008268184B13406A691343836001A8FFF719
:100894006BFE154B9C421FD0039E2368190400D5A0
:1008A40076002F68301C391C00F03AFA391C051CFC
:1008B400301C00F079FA7F080023B9425B41ED183F
:1008C40023681A0404D5094A2B075B0F15401D43FE
:1008D400ADB2A58109B0F0BD079EDEE7FFCFFFFFF3
:1008E400F3E9FFFFFFFCFFFF00380140F0FF0000C9
:1008F40096239B0103600C22002343608360C36042
:10090400026143617047C0464268064B10B51A4005
:100914000C684B6823438C68C96823430B43134317
:10092400436010BDFFF0FFFF00230360436083605A
:10093400C3607047002904D1036801229343036014
:1009440070470268012313430360F9E70368002A30
:1009540002D18B430360704719430160FBE7C04633
:100964000268002903D1044B1340036070478023BD
:100974001B0213430360F9E7FF7FFFFF826800292E
:1009840003D1044B13408360704780231B0113433E
:100994008360F9E7FFF7FFFF4268002903D1044BA6
:1009A40013404360704780231B0313434360F9E7FC
:1009B400FFFFF7FF4268002903D1044B1340436053
:1009C40070478023DB0213434360F9E7FFFFFBFF1B
:1009D4004368002A02D18B43436070471943416046
:1009E400FBE7C0464268002903D1044B134043602F
:1009F400704780231B0213434360F9E7FF7FFFFF27
:100A04004268002903D1044B13404360704780239C
:100A14001B0413434360F9E7FFFF7FFF43691B0E89
:100A24001B06436143691943416170470269FF230F
:100A34001B021340038203699BB21943018270476E
:100A4400002904D1036802229343036070470268BB
:100A5400022313430360F9E78268034B1340836066
:100A64008368194381607047FFFFCFFF4268002904
:100A740003D1044B13404360704780235B0313434B
:100A84004360F9E7FFFFEFFF4268034B1340436005
:100A94004368194341607047FFFF9FFFC905C90DB3
:100AA40001857047406AC005C00D70474368090658
:100AB4001B021B0A43604368194341607047C046E8
:100AC4000268002903D1044B13400360704780235C
:100AD4009B0113430360F9E7FFDFFFFF0268034B49
:100AE400134003600368194301607047FFF7FFFF79
:100AF400436810229343436043681943416070473D
:100B0400436820229343436043681943416070471C
:100B14004268002903D1044B13404360704780238B
:100B2400DB0113434360F9E7FFBFFFFF002904D152
:100B340083680822934383607047826808231343C1
:100B44008360F9E70269FF23134003820369090202
:100B54009BB2194301827047002904D18368202283
:100B64009343836070478268202313438360F9E7CB
:100B7400002904D1836810229343836070478268FC
:100B8400102313438360F9E78268044B490413403C
:100B940083608368194381607047C046FFFFF1FF9B
:100BA400436909061B021B0A4361436919434161F6
:100BB4007047C04683680422934383608368194363
:100BC40081607047002904D18368022293438360C3
:100BD40070478268022313438360F9E7826800291F
:100BE40003D1044B1340836070478023DB0113431C
:100BF4008360F9E7FFBFFFFF8268034B1340836004
:100C04008368194381607047FF7FFFFF0268044BCC
:100C14004905134003600368194301607047C046E7
:100C2400FFFF1FFC0268044B0904134003600368C0
:100C3400194301607047C046FFFFE0FF8368002A44
:100C440002D18B438360704719438160FBE7C04640
:100C54008268034B13408360836819438160704743
:100C6400FFDFFFFF10B5FF248BB2214001248C402D
:100C74001B0A211C022B0AD0032B0AD00368002A6A
:100C840002D18B43036010BD19430160FBE70430BC
:100C9400F4E70830F2E7C0468369002A03D19BB227
:100CA4008B4303837047194389B20183FAE7C04633
:100CB4008268034B134083608368194381607047E3
:100CC400FFEFFFFFC0690840431E9841C0B2704760
:100CD40001627047FF220A4010B501248BB2944090
:100CE4001B0A221C012B0FD0022B10D08468224037
:100CF400C3690020002A06D0090C01208840034063
:100D0400581E8341D8B210BD04682240F0E74468FD
:100D14002240EDE7090C01238B4003627047C04673
:100D2400002934D00123002210B488422CD301249A
:100D34002407A14204D2814202D209011B01F8E72F
:100D4400E400A14204D2814202D249005B00F8E7E8
:100D5400884201D3401A1A434C08A04202D3001B14
:100D64005C0822438C08A04202D3001B9C08224347
:100D7400CC08A04202D3001BDC082243002803D085
:100D84001B0901D00909E3E7101C10BC70470028B7
:100D940001D00020C04307B4024802A140180290C9
:100DA40003BDC046190000000029F0D003B5FFF7C9
:100DB400B9FF0EBC4243891A1847C0467047C04663
:100DC40008B500F069F800F0A9F8FEE7254B13B563
:100DD4001968012211431960586823490F240140FE
:100DE4005960186821490140196018682049014078
:100DF400196058681F4908405860D86AA043D862EF
:100E04001C6B1D4820401863586B904300225863A4
:100E14009A6000920192194A112010605A685A602F
:100E24005A685A605A68114059605968A02292035E
:100E34000A435A601968802282400A431A6019687A
:100E4400084A8801FBD551680320814351605168E9
:100E540002200143516059680C220A40082AFAD141
:100E640013BDC046001002400CB8FFF8FFFFF6FEA9
:100E7400FFFFFBFFFFFFC0FFACFEFFFF00200240AF
:100E84000023984205D0C20703D401334010102B2D
:100E9400F9D1181C70470000F0B5802085B080029D
:100EA4000121FFF711FC8020C0020121FFF70CFC97
:100EB400802000030121FFF707FC124C124A9442E0
:100EC4001ED0A279E57926686B46A78801921D7326
:100ED4006A4601235373301C002302A99373D3730E
:100EE4000297FFF73FF9019B022B07D1381CFFF74C
:100EF400C7FF2A1C81B2301CFFF7D2F90834DDE7A2
:100F040005B0F0BD1010000878100008024B1A68F4
:100F140001321A607047C046140000207FB5104BA0
:100F2400FA2118688900FFF7FBFE0E4B0E4A0138C0
:100F34005860106AC0210002000A090601431162C8
:100F440000229A6007221A60E1235B02684600933C
:100F5400FFF7CEFC05486946FFF77AFC07B000BDF1
:100F64001000002010E000E000ED00E00038014037
:100F74000D488546002103E00C4B5B584350043177
:100F84000B480C4B42189A42F6D30B4A02E000235A
:100F940013600432094B9A42F9D3FFF717FF00F0AC
:100FA40011F8FFF70DFFFEE7002000209010000865
:100FB400000000201400002014000020180000206D
:100FC400FEE7000070B50D4E0D4D0024AD1BAD10B5
:100FD40005D0A300F35801349847A542F9D100F095
:100FE40049F8084E084D0024AD1BAD1005D0A300F0
:100FF400F35801349847A542F9D170BD00000000B0
:101004000000000000000000000000000004004890
:10101400000102010004004800020201000000482F
:1010240000020100000000484000020000000048E7
:101034008000020000000048200002000004004874
:101044004000020000080048800001000000004841
:1010540000010100000400480004010000000048F1
:1010640001000300000000480800020100000048DD
:1010740004000201F8B5C046F8BC08BC9E4670479F
:0C108400F8B5C046F8BC08BC9E4670479A
:10109000000000000102030401020304060708091E
:0410A000006CDC0202
:0400000508000F756B
:00000001FF
